:020000040800F2
:1000000000280020ED0400083D0500083D0500081B
:100010003D0500083D0500083D0500080000000002
:100020000000000000000000000000003D05000886
:100030003D050008000000003D0500083D050008E2
:100040003D0500083D0500083D0500083D05000888
:100050003D0500083D0500083D0500083D05000878
:100060003D0500083D0500083D0500083D05000868
:100070003D0500083D0500083D0500083D05000858
:100080003D0500083D050008B90400083D050008CD
:100090003D0500083D0500083D0500083D05000838
:1000A0003D0500083D0500083D0500083D05000828
:1000B0003D0500083D0500083D0500083D05000818
:1000C0003D0500083D0500083D0500083D05000808
:1000D0003D0500083D0500083D0500083D050008F8
:1000E0003D0500083D050008000000003D05000832
:1000F0003D0500083D0500083D0500083D050008D8
:100100003D0500083D0500083D0500083D050008C7
:100110003D0500083D0500083D0500083D050008B7
:100120003D0500083D0500083D0500083D050008A7
:1001300010B5054C237833B9044B13B10448AFF321
:1001400000800123237010BD00000020000000008B
:100150008805000808B5034B1BB103490348AFF3FA
:10016000008008BD00000000040000208805000891
:1001700080B400AF294B1B68284A43F480331360D6
:1001800000BF264B1B6803F40033002BF9D0234B30
:100190005B68224A43F00103536000BF1F4B5B685A
:1001A00003F00403002BF9D01C4B1C4A5B6853601E
:1001B0001A4B1A4A5B685360184B9B69174A43F005
:1001C00010039361154B9B69144A43F400639361D8
:1001D000134B5B68124A23F440035360104B5B6877
:1001E0000F4A43F4401353600E4B4FF6FE72DA622F
:1001F0000C4B07229A620B4B1B680A4A43F001031F
:10020000136000BF074B1B6903F00103002BF9D0FB
:1002100000BF00BFBD4680BC704700BF0010024059
:1002200000100140002C014080B483B000AF0346B1
:10023000FB80074B00225A6200BF054B5A6AFB88BD
:100240009A42FAD300BF00BF0C37BD4680BC70474E
:10025000002C014080B584B000AF0346FB80002332
:10026000FB8106E04FF47A70FFF7DEFFFB89013374
:10027000FB81FA89FB889A42F4D300BF00BF103794
:10028000BD4680BD80B400AF2E4B9B692D4A43F420
:10029000007393612B4B9B692A4A43F004039361DB
:1002A000284B5B68274A23F480435360254B5B68E7
:1002B000244A23F400435360234B5B68224A43F4EF
:1002C00080735360204B9B681F4A23F40063936044
:1002D0001D4B9B681C4A43F0020393601A4B1B6939
:1002E000194A23F007031361174BDB6A164A23F4FC
:1002F0007003D362154B1B68144A23F00C03136080
:10030000124B1B68114A23F0030313600F4B1B6849
:100310000E4A23F0300313600C4B1B680B4A23F08A
:10032000C0031360094B1B68084A23F44033136071
:10033000064B1B68054A23F44023136000BFBD46EB
:1003400080BC7047001002400024014000080140BA
:1003500080B483B000AF0D4B9B680C4A43F001039F
:10036000936042F210737B6000BF7B685A1E7A6014
:10037000002BFAD1054B9B68044A43F001039360BC
:1003800000BF0C37BD4680BC704700BF0024014051
:1003900080B483B000AF7860094B5A6B7B68084922
:1003A00013434B63064B00221A60054B9B68044ABB
:1003B00043F48003936000BF0C37BD4680BC704798
:1003C0000024014080B483B000AF0346FB7197F96D
:1003D0000730002B0BDBFB7903F01F02064997F96E
:1003E00007305B09012000FA02F241F8232000BF28
:1003F0000C37BD4680BC704700E100E080B500AF1F
:10040000104B5B680F4A43F4000353600D4B5B6A6B
:100410000C4A43F47A6353620A4B9B6A094A43F0DD
:1004200064039362074B5B68064A43F040035360E2
:1004300072B600BF1220FFF7C5FF62B600BF00BF53
:1004400080BD00BF0024014080B500AFFFF790FEE3
:10045000FFF718FFFFF77CFF0120FFF799FFFFF779
:10046000CDFF124BDB68114A23F40053D360104BCD
:100470001B889BB2012B12D10C4BDB680B4A43F457
:100480000053D3604FF47A70FFF7E4FE084B00226C
:100490001A80064BDB68054A23F40053D360054BF2
:1004A0005B68044A43F040035360E0E700100140FA
:1004B0001C0000200024014080B400AF094B5B68A1
:1004C000084A23F040035360064B1B68054A23F09B
:1004D00001031360044B01221A8000BFBD4680BC9B
:1004E000704700BF002401401C0000200D488546D5
:1004F000AFF300800C480D490D4A002302E0D458A8
:10050000C4500433C4188C42F9D30A4A0A4C00235D
:1005100001E013600432A242FBD300F011F8FFF7B0
:1005200093FFFEE7002800200000002000000020CC
:10053000A80500080000002020000020FEE70000C1
:1005400070B500260C4D0D4C641BA410A64209D1B9
:1005500000F01AF800260A4D0A4C641BA410A642AB
:1005600005D170BD55F8043B98470136EEE755F8C4
:10057000043B98470136F2E7A0050008A0050008F3
:10058000A0050008A4050008F8B500BFF8BC08BC29
:100590009E467047F8B500BFF8BC08BC9E46704741
:0405A00055010008F9
:0405A4003101000819
:04000005080004EDFE
:00000001FF
