:020000040800F2
:10000000002800208D040008DD040008DD0400083D
:10001000DD040008DD040008DD0400080000000025
:10002000000000000000000000000000DD040008E7
:10003000DD04000800000000DD040008DD04000805
:10004000DD040008DD040008DD040008DD0400080C
:10005000DD040008DD040008DD040008DD040008FC
:10006000DD040008DD040008DD040008DD040008EC
:10007000DD040008DD040008DD040008DD040008DC
:10008000DD040008DD04000851040008DD04000858
:10009000DD040008DD040008DD040008DD040008BC
:1000A000DD040008DD040008DD040008DD040008AC
:1000B000DD040008DD040008DD040008DD0400089C
:1000C000DD040008DD040008DD040008DD0400088C
:1000D000DD040008DD040008DD040008DD0400087C
:1000E000DD040008DD04000800000000DD04000855
:1000F000DD040008DD040008DD040008DD0400085C
:10010000DD040008DD040008DD040008DD0400084B
:10011000DD040008DD040008DD040008DD0400083B
:10012000DD040008DD040008DD040008DD0400082B
:1001300010B5054C237833B9044B13B10448AFF321
:1001400000800123237010BD00000020000000008B
:100150002805000808B5034B1BB103490348AFF35A
:10016000008008BD000000000400002028050008F1
:1001700080B400AF294B1B68284A43F480331360D6
:1001800000BF264B1B6803F40033002BF9D0234B30
:100190005B68224A43F00103536000BF1F4B5B685A
:1001A00003F00403002BF9D01C4B1C4A5B6853601E
:1001B0001A4B1A4A5B685360184B9B69174A43F005
:1001C00010039361154B9B69144A43F400639361D8
:1001D000134B5B68124A23F440035360104B5B6877
:1001E0000F4A43F4401353600E4B4FF6FE72DA622F
:1001F0000C4B07229A620B4B1B680A4A43F001031F
:10020000136000BF074B1B6903F00103002BF9D0FB
:1002100000BF00BFBD4680BC704700BF0010024059
:1002200000100140002C014080B400AF314B9B69AD
:10023000304A43F4007393612E4B9B692D4A43F07F
:10024000040393612B4B5B682A4A23F48043536079
:10025000284B5B68274A23F400435360264B5B68B6
:10026000254A43F020035360234B5B68224A43F442
:1002700080735360204B9B681F4A23F40063936094
:100280001D4B9B681C4A43F0020393601A4B1B6989
:10029000194A23F007031361174BDB6A164A23F44C
:1002A0007003D362154B1B68144A23F00C031360D0
:1002B000124B1B68114A23F0030313600F4B1B689A
:1002C0000E4A23F0300313600C4B1B680B4A23F0DB
:1002D000C0031360094B1B68084A23F440331360C2
:1002E000064B1B68054A23F44023136000BFBD463C
:1002F00080BC70470010024000240140000801400B
:1003000080B483B000AF0D4B9B680C4A43F00103EF
:10031000936042F210737B6000BF7B685A1E7A6064
:10032000002BFAD1054B9B68044A43F0010393600C
:1003300000BF0C37BD4680BC704700BF00240140A1
:1003400080B483B000AF7860094B5A6B7B68084972
:1003500013434B63064B00221A60054B9B68044A0B
:1003600043F48003936000BF0C37BD4680BC7047E8
:100370000024014080B400AF034BDB6C9BB21846F5
:10038000BD4680BC704700BF0024014080B483B0EC
:1003900000AF0346FB7197F90730002B0BDBFB79AD
:1003A00003F01F02064997F907305B09012000FAA4
:1003B00002F241F8232000BF0C37BD4680BC7047D5
:1003C00000E100E080B500AF074B5B68064A43F0F0
:1003D0002003536072B600BF1220FFF7D7FF62B64A
:1003E00000BF00BF80BD00BF0024014080B500AF4A
:1003F000FFF7BEFEFFF718FFFFF782FF0420FFF7AD
:100400009FFFFFF7DFFF0F4BDB680E4A23F400531B
:10041000D3600D4B1B889BB2012B06D1094BDB68C7
:10042000084A43F40053D36005E0064BDB68054AF5
:1004300023F40053D360054B5B68044A43F0200368
:100440005360E6E7001001401C000020002401403A
:1004500080B500AF0B4B5B680A4A23F02003536062
:10046000FFF788FF03461A4640F6AC539A4203D979
:10047000054B01221A8002E0034B00221A8000BFC4
:1004800080BD00BF002401401C0000200D488546AF
:10049000AFF300800C480D490D4A002302E0D45808
:1004A000C4500433C4188C42F9D30A4A0A4C0023BE
:1004B00001E013600432A242FBD300F011F8FFF711
:1004C00095FFFEE70028002000000020000000202B
:1004D000480500080000002020000020FEE7000082
:1004E00070B500260C4D0D4C641BA410A64209D11A
:1004F00000F01AF800260A4D0A4C641BA410A6420C
:1005000005D170BD55F8043B98470136EEE755F824
:10051000043B98470136F2E7400500084005000813
:100520004005000844050008F8B500BFF8BC08BC49
:100530009E467047F8B500BFF8BC08BC9E467047A1
:040540005501000859
:040544003101000879
:040000050800048D5E
:00000001FF
